:020000040800F2
:10000000E00600208901000877110008B5100008FB
:1000100075110008AF0200085B1300080000000023
:100020000000000000000000000000007B1100083C
:10003000B102000800000000791100087D110008DD
:10004000A3010008A3010008A3010008A301000800
:10005000A3010008A3010008A3010008A3010008F0
:10006000A3010008A3010008A3010008A3010008E0
:10007000A3010008A3010008A3010008A3010008D0
:10008000A3010008A3010008A3010008A3010008C0
:10009000A3010008A3010008A3010008A3010008B0
:1000A000A3010008A3010008A3010008A3010008A0
:1000B000A3010008A3010008A3010008A301000890
:1000C000A3010008A3010008A3010008A301000880
:1000D000A3010008A3010008A3010008A301000870
:1000E000A3010008A3010008A301000800F002F822
:1000F00000F03AF80AA090E8000C82448344AAF188
:100100000107DA4501D100F02FF8AFF2090EBAE885
:100110000F0013F0010F18BFFB1A43F0010318473B
:100120006417000084170000103A24BF78C878C113
:10013000FAD8520724BF30C830C144BF04680C60ED
:10014000704700000023002400250026103A28BF35
:1001500078C1FBD8520728BF30C148BF0B60704739
:100160001FB51FBD10B510BD00F06BF81146FFF7AD
:10017000F7FF01F05FF900F089F803B4FFF7F2FF31
:1001800003BC00F08DF8000009488047094800478B
:10019000FEE7FEE7FEE7FEE7FEE7FEE7FEE7FEE737
:1001A000FEE7FEE704480549054A064B7047000094
:1001B000DF110008ED000008E0000020E00600204C
:1001C000E0020020E0020020B2F120030AD5C2F1D3
:1001D000200320FA02F001FA03F321FA02F140EAC7
:1001E0000300704721FA03F04FF0000170474FF011
:1001F000000200B5134694469646203922BFA0E877
:100200000C50A0E80C50B1F12001BFF4F7AF090782
:1002100028BFA0E80C5048BF0CC05DF804EB890073
:1002200028BF40F8042B08BF704748BF20F8022BB6
:1002300011F0804F18BF00F8012B704770477047CE
:100240007047754600F028F8AE46050069465346EB
:1002500020F00700854618B020B5FFF7A3FFBDE8E2
:1002600020404FF000064FF000074FF000084FF01D
:10027000000B21F00701AC46ACE8C009ACE8C009AE
:10028000ACE8C009ACE8C0098D4670470446AFF33E
:1002900000802046FFF771FF004870478000002073
:1002A00001491820ABBEFEE7260002007047FEE7BA
:1002B000704772B6FEE7000006490020C861064894
:1002C000016941F004010161016941F040010161EE
:1002D000704700006000002000200240064A002114
:1002E000D16106490A6942F002020A61486108695F
:1002F00040F040000861704760000020002002408C
:10030000044B0022DA61044A136943F001031361CC
:100310000180704760000020002002401448002245
:10032000C168CB06134904D5CA6942F00202CA610A
:100330001022C3685B0705D5CB6943F00103CB618D
:1003400042F00402C369DB0707D0CB6943F0040322
:10035000CB61C16921F00101C161A2F58071013950
:1003600001D0C2607047C16921F00101C1617047CD
:10037000002002406000002070B5054600F008FA39
:100380000646114C09E0681C07D025B100F000FAC0
:10039000801BA84201D9032070BDE068C007F2D1DC
:1003A000E068800601D52020E060E068C00605D442
:1003B000E069C00702D1E068400703D5FFF7AEFF50
:1003C000012070BD002070BD0020024010B590F8E3
:1003D00021100022022905D00421816380F8202009
:1003E000012010BD01680B6823F00E030B6001684B
:1003F0000B6823F001030B6090F84030C46B0121BF
:1004000001FA03F3636080F8211080F82020104681
:1004100010BD806B70470000064810B54FF0FF31EB
:10042000016100220261C160C26000F0F1F90020A8
:1004300010BD0000001002402DE9F0470546264897
:100440000F460126017E01290FD001218146017648
:100450002868DFF888804CF25034022808D0A24681
:100460002046FFF789FFA8B131E00220BDE8F08700
:100470002046FFF781FF08BB0120FFF71DFF204644
:10048000FFF77AFFD8F81010064621F00401C8F8EB
:1004900010101CE04FF0FF303860AC6811E02046CF
:1004A000FFF71CFF5046FFF767FFD8F81010060053
:1004B00021F00201C8F8101001D03C6007E004F5FB
:1004C0008064D5E9020100EB8120A042E7D8002139
:1004D00089F818103046C9E760000020002002406B
:1004E0000348016941F0800101610020704700006C
:1004F000002002402DE9F05F07461C488846002492
:10050000017E15461E46012909D00121814601764A
:100510004CF2503A5046FFF72FFF18B122E002206C
:10052000BDE8F09F012F02D0022F00D00427D34650
:10053000DFF83CA0220128463146FFF745FE81B294
:1005400008EB4400FFF7DCFE5846FFF715FFDAF82A
:10055000102022F00102CAF8102018B9641CE4B27D
:10056000BC42E7D3002289F81820D9E760000020B8
:1005700000200240064900200A69120607D5054AF4
:100580004A60054A4A600969090600D5012070479A
:100590000020024023016745AB89EFCD2DE9F84FDC
:1005A000DFF8B8910024A9F1040B23460F2709F1C5
:1005B000040AABF1040EC9E00125A5402A40AA4275
:1005C0007DD1674ED1F804C0ACEB0608B44532D0FB
:1005D00014DCBCF1030F3AD009DCBCF1000F2AD0C7
:1005E000BCF1010F1CD0BCF1020F31D11DE0BCF1F8
:1005F000110F17D0BCF1120F2AD119E0B8F5881FDE
:1006000019D006DCB8F5803F15D0B8F5801F1FD192
:1006100011E0B8F5001F0ED0B8F5041F18D10AE09C
:10062000CB6815E0CB681B1D12E0CB6808330FE0E8
:10063000CB680C330CE08B682BB1012B4FF0080317
:1006400003D0456104E0042302E0056100E00023DB
:10065000FF2A01D8064601E000F104064FEA8405AE
:1006600001D9A5F12005D6F8008007FA05FC28EA93
:100670000C0803FA05F548EA0508C6F800804D683D
:10068000ED0062D5374DAE6946F00106AE61AD6949
:1006900024F0030605F001050095334D06EB050C2B
:1006A000DCF80850A607360F07FA06F825EA080511
:1006B000DFF8B880404503D14FF0000817E044E070
:1006C000DFF8AC80404502D14FF001080FE0DFF8C1
:1006D000A480404502D14FF0020808E0DFF898807E
:1006E000404502D14FF0030801E04FF0040808FA3A
:1006F00006F848EA0508CCF808804D68D9F800608B
:10070000ED024D4601D5164300E096432E604D683C
:10071000DAF80060AD02554601D5164300E0964375
:100720002E604D68DBF80060AD035D4601D51643D1
:1007300000E096432E604D68DEF80060ED037546DC
:1007400001D5164300E096432E60641C0D682A46CE
:10075000E5407FF431AFBDE8F88F000008040140A8
:10076000000011100010024000000140000801408C
:10077000000C014000100140001401408068084056
:1007800000D0012070470AB1016170470904FBE7FE
:100790000148806870470000080000200248816816
:1007A000027811448160704708000020074810B5A6
:1007B000016841F010010160032000F069F80F208A
:1007C00000F006F800F026F8002010BD00200240DE
:1007D00070B50D4D04464FF47A712878B1FBF0F0F6
:1007E0000A490968B1FBF0F000F0D0FA48B9102CC2
:1007F00007D200222146501E00F02AF800206C602B
:1008000070BD012070BD0000080000201400002011
:10081000704700000C4808B5816941F00101816111
:10082000816901F001010091C16941F08051C1610C
:10083000C06900F0805000900448416821F0E061F8
:1008400041F00071416008BD00100240000001400D
:10085000F0B40E4B1B680C46C3F30223C3F107052B
:10086000042D00D90425191D072901D2002300E019
:10087000DB1E012606FA05F1491E214099409E40E3
:10088000761E16403143F0BC00F068BD0CED00E070
:10089000064900F0070208684FF6FF03184040EAD7
:1008A0000220034A10430860704700000CED00E08E
:1008B0000000FA052DE9F0470F46050061D0434ED0
:1008C000306800F00700B84209D2306820F0070015
:1008D00038433060306800F00700B84251D12868D2
:1008E0003B4C810712D5400703D5606840F4E060B7
:1008F00060602878000703D5606840F4605060604D
:100900006068A96820F0F000084360602878C0079C
:1009100028D06868012810D02168022810D08907E3
:1009200000292EDA616821F0030101436160FFF7BD
:100930002FFF804641F288390DE021688903EFE7F7
:100940008901EDE7FFF724FFA0EB0801494502D933
:100950000320BDE8F0876068696800F00C00B0EB28
:10096000810FEFD1306800F00700B8420BD9306832
:1009700020F0070038433060306800F00700B842CC
:1009800001D00120E5E72878400705D56068E968CF
:1009900020F4E060084360602878000706D56068AE
:1009A000296920F4605040EAC100606000F038F826
:1009B0006168084AC1F30311515CC84006490860E8
:1009C00006480068FFF704FF0020C2E7002002404D
:1009D000001002401A180008140000200C0000202B
:1009E0000448054900684968044AC1F30221515C82
:1009F000C840704714000020001002402A18000868
:100A00000448054900684968044AC1F3C221515CA1
:100A1000C840704714000020001002402A18000847
:100A20000E4A51680E4801F00C03042B11D0082B1C
:100A30000FD10C48C1F38343C903C05C0AD5516888
:100A4000084AC1F34041921E515C054A5043B0FB35
:100A5000F1F070470449484370470000001002401D
:100A600000127A000A18000800093D002DE9F84F2D
:100A7000040070D02078C04DC00749D06868C0F32A
:100A80008100012807D06868C0F38100022809D1DD
:100A90006868C00306D52868800339D560680028D7
:100AA000E7D035E06068B0F5803F0BD010B1B0F50D
:100AB000A02F11D0286820F480302860286820F406
:100AC000802002E0286840F480302860606890B19F
:100AD000FFF75EFE06460AE0286840F480202860A2
:100AE000F0E700BFFFF754FE801B642873D8286826
:100AF0008003F7D50CE0FFF74BFE064605E000BF8C
:100B0000FFF746FE801B6428F0D828688003F7D4DE
:100B100020789A4E80074FF001094FF0000839D530
:100B2000686810F00C0F07D06868C0F381000228D5
:100B300009D16868C00306D42868800714D52069E5
:100B4000012808D110E02069B0B1C6F80090FFF785
:100B50001FFE074605E00AE1FFF71AFEC01B022848
:100B6000C4D828688007F7D52868616920F0F800A4
:100B700040EAC10028600DE0C6F80080FFF708FEDB
:100B8000074604E0FFF704FEC01B022823D82868AC
:100B90008007F7D4207800072CD57948A169D9B10E
:100BA000C0F80090FFF7F4FD074604E0FFF7F0FD02
:100BB000C01B02280FD8686A8007F7D571484FF428
:100BC000FA510068B0FBF1F0009000BF0098411EA0
:100BD0000091FAD20EE080E0C0F80080FFF7D8FD67
:100BE000074604E0FFF7D4FDC01B022875D8686AE9
:100BF0008007F7D42078400760D5E8690027C00057
:100C000008D4E86940F08050E861E869012700F005
:100C1000805000905C480168C90513D40168834680
:100C200041F480710160FFF7B3FD824606E000BF2A
:100C3000FFF7AEFDA0EB0A0064284ED8DBF80000F9
:100C4000C005F5D5E06801280AD008B1052813D001
:100C5000286A20F001002862286A20F0040002E0DF
:100C6000286A40F001002862E06841F2883B98B1B0
:100C7000FFF78EFD82460BE0286A40F004002862F0
:100C8000EEE700BFFFF784FDA0EB0A0159455AD8F3
:100C9000286A8007F6D50CE0FFF77AFD824605E06A
:100CA000FFF776FDA0EB0A0159454CD8286A80076A
:100CB000F6D41FB1E86920F08050E861E06988B39C
:100CC0006968C1F38101022944D00228C6F8608016
:100CD00004D0FFF75DFD044638E034E0FFF758FD2F
:100CE000074604E0FFF754FDC01B02282BD82868F4
:100CF0008001F7D4206AB0F5803F05D16868A1680B
:100D000020F4003008436860D4E9080108436968AA
:100D100021F4741108436860C6F86090FFF738FD4D
:100D2000044606E025E000BFFFF732FD001B022865
:100D300009D828688001F7D51BE000BFFFF728FD20
:100D4000001B022802D90320BDE8F88F2868800123
:100D5000F4D40EE00128F7D06868226A00F48031EC
:100D6000914204D1616A00F47010884201D00120E0
:100D7000EAE70020E8E700000010024000004242DD
:100D800080044242140000200070004010B5401E54
:100D9000B0F1807F01D3012010BD4FF0E0246061ED
:100DA0000F21601700F0DAFA0020A061072020610F
:100DB000002010BD70B5044620680C3050E8001FBC
:100DC00021F4F07140E80012002AF5D120681430B7
:100DD00050E8001F21F0010140E80012002AF5D17F
:100DE000206B012809D120680C3050E8001F21F049
:100DF000100140E80012002AF5D1206840694FF048
:100E0000100600064FF0000515D52068143050E894
:100E1000001F21F0800140E80012002AF5D1A06BEC
:100E200048B14563A06BFFF7D1FA20B1A06BFFF783
:100E3000F0FA202824D020684069400615D52068A3
:100E4000143050E8001F21F0400140E80012002A51
:100E5000F5D1E06B48B14563E06BFFF7B7FA20B11D
:100E6000E06BFFF7D6FA20280AD0E584E5856564B3
:100E7000202084F8420084F841002563002070BDE2
:100E80006664032070BD10F8411F40780843704726
:100E900070B5040004D094F84100002510B106E0BC
:100EA000012070BD84F84050204600F023F8242033
:100EB00084F841002068C16821F40051C1602046D7
:100EC00000F0B6F92068016921F4904101612068C1
:100ED000416921F02A0141612068C16841F4005153
:100EE000C1606564202084F8410084F84200656395
:100EF000002070BD30B585B00024009401940294A8
:100F0000039400681449884224D11448816941F44B
:100F100080418161816901F480410491816941F0DE
:100F20000401816180690E4D00F0040004904FF4CB
:100F3000007000900220019003200390694628462B
:100F4000FFF72CFB2815CDE90004694628460294DA
:100F5000FFF724FB05B030BD00380140001002400F
:100F6000000801402DE9F84F044690F842009A46E7
:100F700016460D46202802D00220BDE8F88FB5B1F4
:100F8000AEB100206064222184F842102063FFF794
:100F9000FFFBA6858146E685A0684FF48058202790
:100FA000404501D1206920B12E46002529E00120CD
:100FB000E3E7002625E04B46002220212046CDF81D
:100FC00000A000F091F918B184F842700320D4E732
:100FD00026B1A06840451AD038B108E020684068C2
:100FE000C0F3080025F8020B08E0206978B12068FA
:100FF000406800F07F0000BF06F8010BE08D401E46
:10100000E085E08D0028D6D184F84270B5E72068ED
:101010004068F1E72DE9F843044690F8410098460E
:1010200016460D46202802D00220BDE8F88385B17F
:101030007EB100206064212084F84100FFF7A8FB06
:10104000A6848146E684A0682027B0F5805F02D0A0
:1010500003E00120E9E7206910B12E4600250EE0EB
:1010600000260CE08021204600F03EF9A8B9C6B168
:1010700016F8010B21684860E08C401EE084E08C8B
:101080004B464FF00002CDF800800028EAD14FF027
:101090004001204600F028F940B184F84170032057
:1010A000C3E735F8020BC0F30800E3E784F84170AA
:1010B0000020BAE7FEE70000F0B585B000241C4828
:1010C0000094019402940394816941F020018161AC
:1010D000816901F020010491816941F0040181617D
:1010E000816901F004010491816941F00801816185
:1010F0008069104F00F008004FF4805604900022E1
:1011000031463846FFF73FFB082001258DE83100C6
:1011100069460948FFF742FA0220CDE90240CDE9CD
:10112000006569463846FFF739FA05B0F0BD0000A2
:1011300000100240000C0140000801400C4810B5AE
:101140000A4901604FF4E1314160002181600C22C5
:10115000C160C0E904128161C161FFF799FE0028F6
:1011600003D0BDE81040FFF7A4B810BD003801401F
:1011700018000020FEE7FEE770477047FFF70EBB40
:1011800030B58FB028216846FFF731F814210AA83E
:10119000FFF72DF801210804CDE900100024029486
:1011A00002250491CDE907504FF4E01009906846FC
:1011B000FFF75CFC08B172B6FEE70F20CDE90A0527
:1011C0004FF48060CDE90C4002210AA80E94FFF78D
:1011D00071FB002801D072B6FEE70FB030BD70473A
:1011E00001680C3151E8002F22F4907241E800238D
:1011F000002BF5D10168143151E8002F22F00102D3
:1012000041E80023002BF5D1016B012909D10168C8
:101210000C3151E8002F22F0100241E80023002B8E
:10122000F5D1202180F842100021016370470000B1
:1012300070B5044600680169E26821F44051114329
:1012400001612169A0680843616908432168CA688F
:1012500041F20C639A430243CA6020684169A26963
:1012600021F44071114341611E492068884202D136
:10127000FFF7C6FB01E0FFF7B3FB00EBC00101EB9A
:101280000012606864218000B2FBF0F3B3FBF1F35D
:101290006FF018067343B2FBF0F5B2FBF0F605EB06
:1012A0008305322303EB0515B5FBF1F5B6FBF1F62B
:1012B00005F0F00505EB0615B2FBF0F6B2FBF0F019
:1012C000B0FBF1F06FF01802504306EB800003EB27
:1012D0000010B0FBF1F0216800F00F002844886096
:1012E00070BD0000003801402DE9F84398461746CC
:1012F0000D460446089E24E0701C22D0FFF748FAF1
:10130000A0EB0800B0421AD8CEB12068C1684907E6
:1013100017D5802D15D0402D13D00168C94309077A
:101320000FD401680025406800902046FFF758FF61
:101330000820606484F840500120BDE8F883032051
:10134000FBE72068006835EA000004D00020B842BE
:10135000D2D00020F1E70120F9E7FEE70907090EE6
:10136000002804DB00F1E02080F80014704700F052
:101370000F0000F1E02080F8141D704730B585B0F3
:101380000546FFF7F7F80020049000900120CDE912
:1013900001050848FF24401B800A039004A9684601
:1013A000FFF74AF800B90024FFF79AF805B0204685
:1013B00030BD0000FFFF010870B5054C6568FFF700
:1013C0002BF8206880F30888AC46BDE87040604781
:1013D000008000082DE9F04717468946064600249C
:1013E000FFF7C8F80025DFF8488017E0464502D32C
:1013F00044F0010411E059F8252000233146022071
:10140000FFF778F808B144F0020459F82500316874
:10141000884201D044F00404361D6D1CBD4201D247
:10142000002CE3D0FFF75CF82046BDE8F087000011
:10143000EFFF0108FFF7BAF9FFF7A2FEFFF73CFE46
:10144000FFF77CFE13A000F0B9F81CA000F0B6F87E
:101450001FA000F0B3F827A000F0B0F808212F4833
:10146000FFF78CF920B92EA000F0A8F8FFF7A4FF31
:10147000344D4FF48054002221462846FFF783F96B
:10148000314800F09BF800F045F930A000F096F8E4
:10149000F1E700000A0D3D3D3D3D3D3D3D3D3D3DFB
:1014A0003D3D3D3D3D3D3D3D3D3D3D3D3D3D3D3D6C
:1014B0003D3D3D3D3D3D0A0D00000000554152546B
:1014C00020426F6F746C6F616465720A0D000000DA
:1014D00068747470733A2F2F6769746875622E632D
:1014E0006F6D2F666572656E632D6E656D657468D0
:1014F0000A0D00003D3D3D3D3D3D3D3D3D3D3D3DF9
:101500003D3D3D3D3D3D3D3D3D3D3D3D3D3D3D3D0B
:101510003D3D3D3D0A0D0A0D000000000008014060
:101520004A756D70696E6720746F207573657220DF
:101530006170706C69636174696F6E2E2E2E0A0D76
:1015400000000000000C0140341800080A0D46613C
:10155000696C65642E2E2E20506C65617365207455
:10156000727920616761696E2E0A0D0010B50A4616
:101570000146FF244FF47A730348FFF7F3FC00B9E8
:101580000024204610BD00001800002031B5FF24C3
:101590000948FFF778FCA02802D10748FFF70AFCAA
:1015A0004FF47A73012269460348FFF733FD00B90F
:1015B0000024204638BD00001800002010B5FF248C
:1015C000002201E0521C92B2815C0029FAD101464E
:1015D0004FF47A730348FFF71DFD00B9002420463D
:1015E00010BD00001800002010B502780024521C25
:1015F000D2B202708A4207D31820FFF7C7FF182023
:10160000FFF7C4FFFF2402E01520FFF7BFFF2046CD
:1016100010BD00002DE9F0430024ADF20C4D26462C
:10162000012820D0022820D0FF2402210DF580605F
:10163000FFF79CFF054631466846FFF797FF0543D5
:1016400002210DF20440FFF791FF40EA0503BDF8C7
:1016500004046A4690FA90F93046002541F22107C9
:101660004FF6FF7C19E08026DFE74FF48066DCE769
:1016700012F8011B401E85EA012580B25FF00001CF
:101680005FEA054803D587EA4505ADB201E00CEAFB
:101690004505491CC9B20829F2D30028E8D10BB18D
:1016A00044F00404194F7878204305D11848FFF717
:1016B00065FE18B144F008041CB122E001207870E6
:1016C000FAE79DF800043978884200D002249DF89A
:1016D00001140844FF2801D044F002044D4501D014
:1016E00044F001046CB9B20869467868FFF772FEED
:1016F00008B1082405E03878401C38707868304418
:1017000078600DF20C4D2046BDE8F083000000200B
:1017100000800008FEB500248DF80040294E8DF8A9
:1017200004400120747030702748706042E000BFB0
:101730008DF80840012102A8FFF718FF05000ED020
:10174000707810B1012804D009E04320FFF71EFF94
:1017500005E0032101A8FFF747FF8DF800009DF881
:101760000800012807D0022805D0042817D018281F
:1017700025D0FDB90CE0FFF74DFF10B1082804D0CB
:1017800006E00620FFF702FF14E003208DF80400B6
:10179000032101A8FFF728FF8DF800000AE00620CA
:1017A000FFF7F4FE09A0FFF709FF0EA0FFF706FF01
:1017B000FFF702FE9DF800000028B9D0FEBDFF2013
:1017C000EAE7000000000020008000080A0D4669DA
:1017D000726D776172652075706461746564210A49
:1017E0000D0000004A756D70696E6720746F20757A
:1017F000736572206170706C69636174696F6E2EBD
:101800002E2E0A0D00000000010202030405060747
:1018100008090A0B0C0D0E0F10100000000000004C
:10182000000001020304060708090000000001028D
:1018300003040000506C656173652073656E64205D
:1018400061206E65772062696E6172792066696CCD
:1018500065207769746820586D6F64656D207072BB
:101860006F746F636F6C20746F2075706461746542
:1018700020746865206669726D776172652E0A0D45
:1018800000000000A418000800000020180000005C
:1018900028010008BC18000818000020C806000035
:1018A00044010008010000000000000001000000E9
:0C18B000100000000000000000127A0090
:04000005080000ED02
:00000001FF
